{
  "contractName": "Kittycontract",
  "abi": [
    {
      "anonymous": false,
      "inputs": [
        {
          "indexed": true,
          "internalType": "address",
          "name": "owner",
          "type": "address"
        },
        {
          "indexed": true,
          "internalType": "address",
          "name": "approved",
          "type": "address"
        },
        {
          "indexed": true,
          "internalType": "uint256",
          "name": "tokenId",
          "type": "uint256"
        }
      ],
      "name": "Approval",
      "type": "event"
    },
    {
      "anonymous": false,
      "inputs": [
        {
          "indexed": false,
          "internalType": "address",
          "name": "owner",
          "type": "address"
        },
        {
          "indexed": false,
          "internalType": "uint256",
          "name": "kittyId",
          "type": "uint256"
        },
        {
          "indexed": false,
          "internalType": "uint256",
          "name": "momId",
          "type": "uint256"
        },
        {
          "indexed": false,
          "internalType": "uint256",
          "name": "dadId",
          "type": "uint256"
        },
        {
          "indexed": false,
          "internalType": "uint256",
          "name": "dna",
          "type": "uint256"
        }
      ],
      "name": "Birth",
      "type": "event"
    },
    {
      "anonymous": false,
      "inputs": [
        {
          "indexed": true,
          "internalType": "address",
          "name": "from",
          "type": "address"
        },
        {
          "indexed": true,
          "internalType": "address",
          "name": "to",
          "type": "address"
        },
        {
          "indexed": true,
          "internalType": "uint256",
          "name": "tokenId",
          "type": "uint256"
        }
      ],
      "name": "Transfer",
      "type": "event"
    },
    {
      "constant": true,
      "inputs": [],
      "name": "_name",
      "outputs": [
        {
          "internalType": "string",
          "name": "",
          "type": "string"
        }
      ],
      "payable": false,
      "stateMutability": "view",
      "type": "function"
    },
    {
      "constant": true,
      "inputs": [],
      "name": "_symbol",
      "outputs": [
        {
          "internalType": "string",
          "name": "",
          "type": "string"
        }
      ],
      "payable": false,
      "stateMutability": "view",
      "type": "function"
    },
    {
      "constant": false,
      "inputs": [
        {
          "internalType": "uint256",
          "name": "_dna",
          "type": "uint256"
        }
      ],
      "name": "createKittyGen0",
      "outputs": [],
      "payable": false,
      "stateMutability": "nonpayable",
      "type": "function"
    },
    {
      "constant": true,
      "inputs": [
        {
          "internalType": "uint256",
          "name": "_id",
          "type": "uint256"
        }
      ],
      "name": "getKitty",
      "outputs": [
        {
          "internalType": "uint256",
          "name": "dna",
          "type": "uint256"
        },
        {
          "internalType": "uint256",
          "name": "birthTime",
          "type": "uint256"
        },
        {
          "internalType": "uint256",
          "name": "momId",
          "type": "uint256"
        },
        {
          "internalType": "uint256",
          "name": "dadId",
          "type": "uint256"
        },
        {
          "internalType": "uint256",
          "name": "generation",
          "type": "uint256"
        },
        {
          "internalType": "address",
          "name": "owner",
          "type": "address"
        }
      ],
      "payable": false,
      "stateMutability": "view",
      "type": "function"
    },
    {
      "constant": true,
      "inputs": [
        {
          "internalType": "address",
          "name": "owner",
          "type": "address"
        }
      ],
      "name": "balanceOf",
      "outputs": [
        {
          "internalType": "uint256",
          "name": "balance",
          "type": "uint256"
        }
      ],
      "payable": false,
      "stateMutability": "view",
      "type": "function"
    },
    {
      "constant": true,
      "inputs": [],
      "name": "totalSupply",
      "outputs": [
        {
          "internalType": "uint256",
          "name": "total",
          "type": "uint256"
        }
      ],
      "payable": false,
      "stateMutability": "view",
      "type": "function"
    },
    {
      "constant": true,
      "inputs": [],
      "name": "name",
      "outputs": [
        {
          "internalType": "string",
          "name": "tokenName",
          "type": "string"
        }
      ],
      "payable": false,
      "stateMutability": "view",
      "type": "function"
    },
    {
      "constant": true,
      "inputs": [],
      "name": "symbol",
      "outputs": [
        {
          "internalType": "string",
          "name": "tokenSymbol",
          "type": "string"
        }
      ],
      "payable": false,
      "stateMutability": "view",
      "type": "function"
    },
    {
      "constant": true,
      "inputs": [
        {
          "internalType": "uint256",
          "name": "tokenId",
          "type": "uint256"
        }
      ],
      "name": "ownerOf",
      "outputs": [
        {
          "internalType": "address",
          "name": "owner",
          "type": "address"
        }
      ],
      "payable": false,
      "stateMutability": "view",
      "type": "function"
    },
    {
      "constant": false,
      "inputs": [
        {
          "internalType": "address",
          "name": "to",
          "type": "address"
        },
        {
          "internalType": "uint256",
          "name": "tokenId",
          "type": "uint256"
        }
      ],
      "name": "transfer",
      "outputs": [],
      "payable": false,
      "stateMutability": "nonpayable",
      "type": "function"
    }
  ],
  "bytecode": "0x6080604052336000806101000a81548173ffffffffffffffffffffffffffffffffffffffff021916908373ffffffffffffffffffffffffffffffffffffffff16021790555061119d806100536000396000f3fe608060405234801561001057600080fd5b506004361061009e5760003560e01c8063a9059cbb11610066578063a9059cbb1461028d578063b09f1266146102db578063d28d88521461035e578063d5a776ca146103e1578063e98b7f4d1461040f5761009e565b806306fdde03146100a357806318160ddd146101265780636352211e1461014457806370a08231146101b257806395d89b411461020a575b600080fd5b6100ab6104a0565b6040518080602001828103825283818151815260200191508051906020019080838360005b838110156100eb5780820151818401526020810190506100d0565b50505050905090810190601f1680156101185780820380516001836020036101000a031916815260200191505b509250505060405180910390f35b61012e6104dd565b6040518082815260200191505060405180910390f35b6101706004803603602081101561015a57600080fd5b81019080803590602001909291905050506104ea565b604051808273ffffffffffffffffffffffffffffffffffffffff1673ffffffffffffffffffffffffffffffffffffffff16815260200191505060405180910390f35b6101f4600480360360208110156101c857600080fd5b81019080803573ffffffffffffffffffffffffffffffffffffffff1690602001909291905050506105a1565b6040518082815260200191505060405180910390f35b6102126105ea565b6040518080602001828103825283818151815260200191508051906020019080838360005b83811015610252578082015181840152602081019050610237565b50505050905090810190601f16801561027f5780820380516001836020036101000a031916815260200191505b509250505060405180910390f35b6102d9600480360360408110156102a357600080fd5b81019080803573ffffffffffffffffffffffffffffffffffffffff16906020019092919080359060200190929190505050610627565b005b6102e361094e565b6040518080602001828103825283818151815260200191508051906020019080838360005b83811015610323578082015181840152602081019050610308565b50505050905090810190601f1680156103505780820380516001836020036101000a031916815260200191505b509250505060405180910390f35b610366610987565b6040518080602001828103825283818151815260200191508051906020019080838360005b838110156103a657808201518184015260208101905061038b565b50505050905090810190601f1680156103d35780820380516001836020036101000a031916815260200191505b509250505060405180910390f35b61040d600480360360208110156103f757600080fd5b81019080803590602001909291905050506109c0565b005b61043b6004803603602081101561042557600080fd5b8101908080359060200190929190505050610a2c565b604051808781526020018681526020018581526020018481526020018381526020018273ffffffffffffffffffffffffffffffffffffffff1673ffffffffffffffffffffffffffffffffffffffff168152602001965050505050505060405180910390f35b60606040518060400160405280600581526020017f4b69747479000000000000000000000000000000000000000000000000000000815250905090565b6000600180549050905090565b60006001805490508210610566576040517f08c379a00000000000000000000000000000000000000000000000000000000081526004018080602001828103825260148152602001807f4b6974747920646f6573206e6f7420657869737400000000000000000000000081525060200191505060405180910390fd5b6003600083815260200190815260200160002060009054906101000a900473ffffffffffffffffffffffffffffffffffffffff169050919050565b6000600260008373ffffffffffffffffffffffffffffffffffffffff1673ffffffffffffffffffffffffffffffffffffffff168152602001908152602001600020549050919050565b60606040518060400160405280600381526020017f4b49540000000000000000000000000000000000000000000000000000000000815250905090565b8173ffffffffffffffffffffffffffffffffffffffff16600073ffffffffffffffffffffffffffffffffffffffff1614156106ca576040517f08c379a000000000000000000000000000000000000000000000000000000000815260040180806020018281038252600f8152602001807f496e76616c69642061646472657373000000000000000000000000000000000081525060200191505060405180910390fd5b3373ffffffffffffffffffffffffffffffffffffffff168273ffffffffffffffffffffffffffffffffffffffff16141561076c576040517f08c379a00000000000000000000000000000000000000000000000000000000081526004018080602001828103825260178152602001807f43616e6e6f742073656e6420746f20796f757273656c6600000000000000000081525060200191505060405180910390fd5b3073ffffffffffffffffffffffffffffffffffffffff168273ffffffffffffffffffffffffffffffffffffffff1614156107f1576040517f08c379a00000000000000000000000000000000000000000000000000000000081526004018080602001828103825260238152602001806111466023913960400191505060405180910390fd5b600180549050811061086b576040517f08c379a00000000000000000000000000000000000000000000000000000000081526004018080602001828103825260148152602001807f4b6974747920646f6573206e6f7420657869737400000000000000000000000081525060200191505060405180910390fd5b3373ffffffffffffffffffffffffffffffffffffffff166003600083815260200190815260200160002060009054906101000a900473ffffffffffffffffffffffffffffffffffffffff1673ffffffffffffffffffffffffffffffffffffffff161461093f576040517f08c379a00000000000000000000000000000000000000000000000000000000081526004018080602001828103825260198152602001807f596f7520646f206e6f74206f776e2074686973206b697474790000000000000081525060200191505060405180910390fd5b61094a338383610b8d565b5050565b6040518060400160405280600381526020017f4b4954000000000000000000000000000000000000000000000000000000000081525081565b6040518060400160405280600581526020017f4b6974747900000000000000000000000000000000000000000000000000000081525081565b6000809054906101000a900473ffffffffffffffffffffffffffffffffffffffff1673ffffffffffffffffffffffffffffffffffffffff163373ffffffffffffffffffffffffffffffffffffffff1614610a1957600080fd5b610a2860008060008433610da0565b5050565b6000806000806000806001805490508710610aaf576040517f08c379a00000000000000000000000000000000000000000000000000000000081526004018080602001828103825260148152602001807f4b6974747920646f6573206e6f7420657869737400000000000000000000000081525060200191505060405180910390fd5b600060018881548110610abe57fe5b90600052602060002090600202019050806000015496508060010160009054906101000a900467ffffffffffffffff1667ffffffffffffffff1695508060010160089054906101000a900463ffffffff1663ffffffff16945080600101600c9054906101000a900463ffffffff1663ffffffff1693508060010160109054906101000a900461ffff1661ffff1692506003600089815260200190815260200160002060009054906101000a900473ffffffffffffffffffffffffffffffffffffffff1691505091939550919395565b8273ffffffffffffffffffffffffffffffffffffffff16600073ffffffffffffffffffffffffffffffffffffffff1614610c5857610c146001600260008673ffffffffffffffffffffffffffffffffffffffff1673ffffffffffffffffffffffffffffffffffffffff16815260200190815260200160002054610f6a90919063ffffffff16565b600260008573ffffffffffffffffffffffffffffffffffffffff1673ffffffffffffffffffffffffffffffffffffffff168152602001908152602001600020819055505b610cab6001600260008573ffffffffffffffffffffffffffffffffffffffff1673ffffffffffffffffffffffffffffffffffffffff16815260200190815260200160002054610fb490919063ffffffff16565b600260008473ffffffffffffffffffffffffffffffffffffffff1673ffffffffffffffffffffffffffffffffffffffff16815260200190815260200160002081905550816003600083815260200190815260200160002060006101000a81548173ffffffffffffffffffffffffffffffffffffffff021916908373ffffffffffffffffffffffffffffffffffffffff160217905550808273ffffffffffffffffffffffffffffffffffffffff168473ffffffffffffffffffffffffffffffffffffffff167fddf252ad1be2c89b69c2b068fc378daa952ba7f163c4a11628f55a4df523b3ef60405160405180910390a4505050565b6000610daa6110fc565b6040518060a001604052808581526020014267ffffffffffffffff1681526020018863ffffffff1681526020018763ffffffff1681526020018661ffff168152509050600060018083908060018154018082558091505090600182039060005260206000209060020201600090919290919091506000820151816000015560208201518160010160006101000a81548167ffffffffffffffff021916908367ffffffffffffffff16021790555060408201518160010160086101000a81548163ffffffff021916908363ffffffff160217905550606082015181600101600c6101000a81548163ffffffff021916908363ffffffff16021790555060808201518160010160106101000a81548161ffff021916908361ffff1602179055505050039050610ed960008583610b8d565b7f0a5311bd2a6608f08a180df2ee7c5946819a649b204b554bb8e39825b2c50ad584828a8a89604051808673ffffffffffffffffffffffffffffffffffffffff1673ffffffffffffffffffffffffffffffffffffffff1681526020018581526020018481526020018381526020018281526020019550505050505060405180910390a1809250505095945050505050565b6000610fac83836040518060400160405280601e81526020017f536166654d6174683a207375627472616374696f6e206f766572666c6f77000081525061103c565b905092915050565b600080828401905083811015611032576040517f08c379a000000000000000000000000000000000000000000000000000000000815260040180806020018281038252601b8152602001807f536166654d6174683a206164646974696f6e206f766572666c6f77000000000081525060200191505060405180910390fd5b8091505092915050565b60008383111582906110e9576040517f08c379a00000000000000000000000000000000000000000000000000000000081526004018080602001828103825283818151815260200191508051906020019080838360005b838110156110ae578082015181840152602081019050611093565b50505050905090810190601f1680156110db5780820380516001836020036101000a031916815260200191505b509250505060405180910390fd5b5060008385039050809150509392505050565b6040518060a0016040528060008152602001600067ffffffffffffffff168152602001600063ffffffff168152602001600063ffffffff168152602001600061ffff168152509056fe43616e6e6f742073656e6420746f2074686520636f6e74726163742061646472657373a265627a7a723158207445a38fa0014d4634b2224dfe9986837ca428c23f6b10c3de44c92870d83c4064736f6c63430005100032",
  "source": "pragma solidity ^0.5.12;\r\n\r\nimport \"./IERC721.sol\";\r\nimport \"./SafeMath.sol\";\r\nimport \"./Ownable.sol\";\r\n\r\ncontract Kittycontract is IERC721, Ownable {\r\n    using SafeMath for uint256;\r\n\r\n    string public constant _name = \"Kitty\";\r\n    string public constant _symbol = \"KIT\";\r\n\r\n    event Birth(address owner, uint256 kittyId, uint256 momId, uint256 dadId, uint256 dna);\r\n\r\n    struct Kitty {\r\n        uint256 dna;        \r\n        uint64 birthTime;\r\n        uint32 momId;\r\n        uint32 dadId;\r\n        uint16 generation;\r\n    }\r\n\r\n    Kitty[] kitties;\r\n\r\n    mapping(address => uint256) ownerTokenCount;\r\n    mapping(uint256 => address) kittyOwner;\r\n\r\n    function createKittyGen0(uint256 _dna) public onlyOwner {\r\n        _createKitty(0, 0, 0, _dna, msg.sender);\r\n    }\r\n\r\n    function _createKitty(uint256 _momId, uint256 _dadId, uint256 _generation, uint256 _dna, address _owner) private returns (uint256) {\r\n        Kitty memory _kitty = Kitty({\r\n            dna: _dna,\r\n            birthTime: uint64(now),\r\n            momId: uint32(_momId),\r\n            dadId: uint32(_dadId),\r\n            generation: uint16(_generation)\r\n        });\r\n\r\n        uint256 newKittyId = kitties.push(_kitty) - 1;\r\n        _transfer(address(0), _owner, newKittyId);\r\n\r\n        emit Birth(_owner, newKittyId, _momId, _dadId, _dna);\r\n\r\n        return newKittyId;\r\n    }\r\n\r\n    function getKitty(uint256 _id) external view returns(\r\n        uint256 dna,\r\n        uint256 birthTime,\r\n        uint256 momId,\r\n        uint256 dadId,\r\n        uint256 generation,\r\n        address owner\r\n    ) {\r\n        require(_id < kitties.length, \"Kitty does not exist\");\r\n\r\n        Kitty storage kitty = kitties[_id];\r\n\r\n        dna = kitty.dna;\r\n        birthTime = uint256(kitty.birthTime);\r\n        momId = uint256(kitty.momId);\r\n        dadId = uint256(kitty.dadId);\r\n        generation = uint256(kitty.generation);\r\n        owner = kittyOwner[_id];\r\n    }\r\n\r\n    /**\r\n     * @dev Returns the number of tokens in ``owner``'s account.\r\n     */\r\n    function balanceOf(address owner) external view returns (uint256 balance) {\r\n        return ownerTokenCount[owner];\r\n    }\r\n\r\n    /*\r\n     * @dev Returns the total number of tokens in circulation.\r\n     */\r\n    function totalSupply() external view returns (uint256 total) {\r\n        return kitties.length;\r\n    }\r\n\r\n    /*\r\n     * @dev Returns the name of the token.\r\n     */\r\n    function name() external view returns (string memory tokenName) {\r\n        return _name;\r\n    }\r\n\r\n    /*\r\n     * @dev Returns the symbol of the token.\r\n     */\r\n    function symbol() external view returns (string memory tokenSymbol) {\r\n        return _symbol;\r\n    }\r\n\r\n    /**\r\n     * @dev Returns the owner of the `tokenId` token.\r\n     *\r\n     * Requirements:\r\n     *\r\n     * - `tokenId` must exist.\r\n     */\r\n    function ownerOf(uint256 tokenId) external view returns (address owner) {\r\n        require(tokenId < kitties.length, \"Kitty does not exist\");\r\n\r\n        return kittyOwner[tokenId];\r\n    }\r\n\r\n    function _transfer(address from, address to, uint256 tokenId) internal {\r\n        if (address(0) != from) {\r\n            ownerTokenCount[from] = ownerTokenCount[from].sub(1);\r\n        }\r\n        ownerTokenCount[to] = ownerTokenCount[to].add(1);\r\n        kittyOwner[tokenId] = to;\r\n\r\n        emit Transfer(from, to, tokenId);\r\n    }\r\n\r\n     /* @dev Transfers `tokenId` token from `msg.sender` to `to`.\r\n     *\r\n     *\r\n     * Requirements:\r\n     *\r\n     * - `to` cannot be the zero address.\r\n     * - `to` can not be the contract address.\r\n     * - `tokenId` token must be owned by `msg.sender`.\r\n     *\r\n     * Emits a {Transfer} event.\r\n     */\r\n    function transfer(address to, uint256 tokenId) external {\r\n        require(address(0) != to, \"Invalid address\");\r\n        require(to != msg.sender, \"Cannot send to yourself\");\r\n        require(to != address(this), \"Cannot send to the contract address\");\r\n        require(tokenId < kitties.length, \"Kitty does not exist\");\r\n        require(kittyOwner[tokenId] == msg.sender, \"You do not own this kitty\");\r\n\r\n        _transfer(msg.sender, to, tokenId);\r\n    }\r\n}",
  "sourcePath": "C:\\Users\\ocean\\OneDrive\\BlockchainBootcamp\\erc721\\contracts\\KittyContract.sol",
  "compiler": {
    "name": "solc",
    "version": "0.5.16+commit.9c3226ce.Emscripten.clang"
  },
  "schemaVersion": "3.2.0",
  "updatedAt": "2020-09-22T18:49:44.024Z",
  "networkType": "ethereum",
  "devdoc": {
    "methods": {
      "balanceOf(address)": {
        "details": "Returns the number of tokens in ``owner``'s account."
      },
      "ownerOf(uint256)": {
        "details": "Returns the owner of the `tokenId` token.      * Requirements:      * - `tokenId` must exist."
      }
    }
  },
  "userdoc": {
    "methods": {}
  }
}